:100000000C94E6000C9403010C9403010C9403017E
:100010000C9403010C9403010C9403010C94030150
:100020000C9403010C9403010C9403010C9413042D
:100030000C9434040C9403010C9403010C940301FC
:100040000C9403010C9403010C9403010C94030120
:100050000C9403010C9403010C9403010C94030110
:100060000C9403010C9403010C9403010C94030100
:100070000C9403012126010700000000000100008C
:10008000B30112000200001D0122002100002F0117
:1000900009002200003F017400030000190104015F
:1000A000030904CF004802030904AD0020200355D2
:1000B000006E006F004A006F00790020004A006F58
:1000C00000790073007400690063006B0000004851
:1000D000034F00700065006E00430068006F0072FF
:1000E00000640020005800200052004D00490054D8
:1000F0000020004500780065007200740069006F00
:10010000006E002000470061006D00650073002054
:10011000004C00610062000000040309040902228F
:100120000001010080320904000001030000000901
:1001300021110100012274000705810340000A0516
:10014000010905A10115002501350045017501953D
:100150000E05091901290E8102950281010501256B
:1001600007463B0175049501651409398142650014
:100170009501810126FF0046FF000930093109324F
:100180000933093409357508950681020600FF090F
:1001900020092109220923092409250926092709FB
:1001A000280929092A092B950C81020A212695087C
:1001B000B102C01201100100000040C410C0820052
:1001C000010102000101C1320000000011241FBE24
:1001D000CFEFD2E0DEBFCDBF11E0A0E0B1E0E6E9B5
:1001E000FAE002C005900D92A230B107D9F721E0E4
:1001F000A2E0B1E001C01D92A931B207E1F70E946F
:100200004E010C9449050C9400009093CD0080930E
:10021000CC0088E18093C90086E08093CA000895ED
:100220002091C80027FD0BC0EFE9FFE03197F1F7FF
:1002300000C000000197009799F780E00895809131
:10024000CE0008959091C80095FFFCCF8093CE001A
:1002500008958091C80087FF03C08091CE00F9CF38
:1002600008959AB121E030E001C0220F8A95EAF7A3
:10027000922B9AB98BB1209528232BB908959AB166
:1002800021E030E001C0220F8A95EAF7822F8095A5
:1002900089238AB98BB1822B8BB90895CF93DF93D1
:1002A000CDB7DEB729970FB6F894DEBF0FBECDBF2E
:1002B000A89584B7877F84BF88E10FB6F8948093B0
:1002C0006000109260000FBE89E190E00E9405017D
:1002D00080E880936100109261000E9499020E9460
:1002E000BD02811119C085E00E9431012FEF80E726
:1002F00092E0215080409040E1F700C0000085E08E
:100300000E943F012FEF80E792E021508040904013
:10031000E1F700C00000E3CF2FEF89E698E121501C
:1003200080409040E1F700C000008FE39CE9019716
:10033000F1F700C0000085E00E9431010E94290110
:1003400080E00E94220189E190E00E941001182FB4
:1003500081E00E94220189E190E00E941001F82EC4
:1003600082E00E94220189E190E00E941001E82EC3
:1003700083E00E94220189E190E00E941001282F71
:10038000220F9B819170922B9B83881F8827881F47
:100390009C819E7F982B9C8384E00E94220189E1AE
:1003A00090E00E941001282F220F9C819170922BC7
:1003B0009C83881F8827881F9D819E7F982B9D8303
:1003C00085E00E94220189E190E00E941001282F1F
:1003D000220F9D819170922B9D83881F8827881FF3
:1003E0009E819E7F982B9E8386E00E94220189E158
:1003F00090E00E941001282F220F9E819170922B75
:100400009E83881F8827881F9F819E7F982B9F83AC
:1004100087E00E94220189E190E00E941001282FCC
:10042000220F9F819170922B9F83881F8827881F9E
:1004300098859E7F982B988788E00E94220189E109
:1004400090E00E941001282F220F98859170922B26
:100450009887881F8827881F99859E7F982B998762
:1004600085E00E943F01098110FB00F9812F8695EC
:1004700080FB01F9812F8695869580FB02F9812FFB
:1004800086958695869580FB03F9812F82958F70DE
:1004900080FB04F9812F82958695877080FB05F992
:1004A000812F829586958695837080FB06F9111FB2
:1004B0001127111F10FB07F909831A81F0FA10F9AF
:1004C0008F2D869580FB11F98F2D8695869580FB63
:1004D00012F98F2D86958695869580FB13F98F2DC1
:1004E00082958F7080FB14F98F2D82958695877089
:1004F00080FB15F98F2D829586958695837080FBFC
:1005000016F9FF1CFF24FF1CF0FA17F91A832B8140
:10051000E0FA20F92B833C814D815E816F817885E3
:1005200089850E94F00201CF8091E80080FFFCCF16
:10053000089580EA8093D80086E089BD80E090E04D
:1005400009B400FC0DC0EFE9FFE03197F1F700C0FE
:1005500000000196883EF3E09F0791F781E008953F
:1005600080E88093D8001092E000109203018CE0A4
:100570008093E200789480E00895809103010895CB
:1005800080910301811102C08FEF08958FB7F89415
:1005900091E09093E9009091E4009E5C21E030911D
:1005A000E80035FD0EC08FBF80910301882361F301
:1005B0008091E400891741F38FB7F8942093E90004
:1005C000EECFE4E0F1E091919093F10091E0E93118
:1005D000F907C9F79AE39093E8008FBF80E0089588
:1005E0000F931F93CF93DF93CDB7DEB729970FB645
:1005F000F894DEBF0FBECDBF2B833C834D835E835B
:100600006F83788789878091040100FB83F902FB5F
:10061000222720F98E7F03FB992790F9822B90FBEC
:1006200081F901FB992790F990FB82F904FB992746
:1006300090F990FB84F907FB992790F990FB85F9D5
:1006400005FB992790F990FB86F910FB87F98093B9
:10065000040183FF04C09FEF9093110102C0109228
:10066000110180FF04C09FEF9093140102C010920B
:10067000140181FF04C09FEF9093130102C01092F8
:10068000130182FF04C09FEF9093120102C01092E9
:10069000120184FF04C09FEF9093150102C01092D5
:1006A000150186FF04C09FEF9093170102C01092BE
:1006B000170185FF04C09FEF9093160102C01092AE
:1006C000160187FF04C08FEF8093180102C01092BB
:1006D000180112FB992790F98091050190FB80F990
:1006E00013FB992790F990FB81F906FB002700F98D
:1006F00000FB82F911FB992790F990FB83F914FB19
:10070000992790F990FB84F98093050188E0809304
:100710000601812F80729B8116FF0DC0882311F086
:1007200027E003C017FF04C021E02093060119C091
:100730001092060116C090FF0AC0882311F025E030
:1007400009C017FF02C023E005C024E003C08823CE
:1007500021F026E02093060163C017FF61C022E06C
:10076000F9CF2FEF20930D0117FF04C02FEF209337
:100770000E0102C010920E0190FF04C02FEF2093D3
:100780000F0102C010920F01882321F08FEF809398
:10079000100102C01092100196952C81822F87952E
:1007A00088278795892B8093070126959D81892F1E
:1007B000879588278795822B80930801292F269576
:1007C0009E81892F879588278795822B80930901A1
:1007D000292F26959F81892F879588278795822B9A
:1007E00080930A01292F26959885892F8795882738
:1007F0008795822B80930B0196958985879588270D
:100800008795892B80930C0129960FB6F894DEBF4B
:100810000FBECDBFDF91CF911F910F910C94C002FD
:1008200010920D01A1CF1F920F920FB60F921124BB
:100830008F938091E1001092E10083FF0FC010922E
:10084000E90081E08093EB001092EC0082E380935A
:10085000ED0088E08093F000109203018F910F90DB
:100860000FBE0F901F9018951F920F920FB60F9208
:1008700011242F933F934F935F936F937F938F93A5
:100880009F93AF93BF93CF93DF93EF93FF93109218
:10089000E9008091E80083FFE6C09091F10080912B
:1008A000F100C091F1002091F100D0E0D22B4091F5
:1008B000F1002091F10050E0522B2091F100A09125
:1008C000F10032EF3093E800863009F046C037E09F
:1008D0008CE790E0FC01659174916C177D0739F409
:1008E000FC013296659174916417750721F00796A3
:1008F000315081F7B8C0FC01349645915491FC0108
:100900003696849130E03A2B2F3F310519F010F0E4
:100910002FEF30E0281708F4822F3EEF9091E80087
:10092000292F2570D9F392FDA1C0982F813408F0AA
:1009300090E4FA01292F222331F064916093F100B1
:1009400021503196F8CF490F511D891B3093E80093
:100950008111E4CF903411F389C0853049F48EEFD2
:100960008093E8000E949402C068C093E3007EC0B8
:10097000893059F591113BC0C09303018EEF8093EC
:10098000E80041E085EC91E04093E9009C012F5F95
:100990003F4FFC0154915093EB00552359F0F9015E
:1009A00024912093EC009C012D5F3F4F3196849160
:1009B0008093ED004F5F453011F0C901E5CF8EE126
:1009C0008093EA001092EA0051C0883039F49038E0
:1009D00071F40E9494028091030129C0811107C023
:1009E0000E9494021092F1001092F10038C0452B41
:1009F000D1F5913AF9F4813069F40E949402E4E768
:100A0000F0E084918093F100319680E0EC37F807B4
:100A1000C1F725C0823029F40E949402809102011E
:100A200006C0833001F50E949402809100018093FA
:100A3000F10015C09132B9F4893041F48091E80099
:100A400082FFFCCF8BEF8093E80009C08A3019F455
:100A5000D093020104C08B3031F4C09300018EEFBB
:100A60008093E80003C081E28093EB00FF91EF9157
:100A7000DF91CF91BF91AF919F918F917F916F91B6
:100A80005F914F913F912F910F900FBE0F901F904C
:060A90001895F894FFCF59
:020A960001005D
:00000001FF
